:020000040800F2
:1000000000C0002049170008D9580008DD58000832
:10001000E1580008E5580008E95800080000000011
:10002000000000000000000000000000ED58000883
:10003000F158000800000000F55800085D5B00085A
:1000400099170008991700089917000899170008D0
:1000500099170008991700089917000899170008C0
:10006000D553000835530008755400089917000847
:1000700099170008991700089917000899170008A0
:100080009917000899170008991700089917000890
:10009000F9580008991700089917000899170008DF
:1000A00099170008F54F00089917000899170008DC
:1000B0009917000899170008991700089917000860
:1000C0009917000899170008991700089917000850
:1000D0009917000899170008991700089917000840
:1000E0009917000899170008FD580008991700088B
:1000F0006D50000899170008991700089917000813
:100100009917000899170008194F00089917000857
:10011000755C0008991700089917000899170008DE
:1001200099170008991700089917000899170008EF
:1001300000000000000000000000000000000000BF
:1001400000000000000000000000000000000000AF
:10015000000000000000000000000000000000009F
:10016000000000000000000000000000000000008F
:10017000000000000000000000000000000000007F
:10018000000000000000000000000000000000006F
:10019000000000000000000000000000000000005F
:1001A000000000000000000000000000000000004F
:1001B000000000000000000000000000000000003F
:1001C000000000000000000000000000000000002F
:1001D000000000000000000000000000000000001F
:0401E0005FF8E0F1F3
:1001E80081F0004102E000BF83F0004330B54FEAE0
:1001F80041044FEA430594EA050F08BF90EA020F4D
:100208001FBF54EA000C55EA020C7FEA645C7FEADF
:10021800655C00F0E2804FEA5454D4EB5555B8BF02
:100228006D420CDD2C4480EA020281EA030382EA73
:10023800000083EA010180EA020281EA0303362D05
:1002480088BF30BD11F0004F4FEA01314FF4801CD8
:100258004CEA113102D0404261EB410113F0004FEA
:100268004FEA03334CEA133302D0524263EB4303A1
:1002780094EA050F00F0A780A4F10104D5F1200E3F
:100288000DDB02FA0EFC22FA05F2801841F100019A
:1002980003FA0EF2801843FA05F359410EE0A5F16E
:1002A80020050EF1200E012A03FA0EFC28BF4CF09F
:1002B800020C43FA05F3C01851EBE37101F0004555
:1002C80007D54FF0000EDCF1000C7EEB00006EEB62
:1002D8000101B1F5801F1BD3B1F5001F0CD34908EC
:1002E8005FEA30004FEA3C0C04F101044FEA445243
:1002F80012F5800F80F09A80BCF1004F08BF5FEACA
:10030800500C50F1000041EB045141EA050130BDA9
:100318005FEA4C0C404141EB010111F4801FA4F14C
:100328000104E9D191F0000F04BF01460020B1FAA1
:1003380081F308BF2033A3F10B03B3F120020CDAD9
:100348000C3208DD02F1140CC2F10C0201FA0CF0B7
:1003580021FA02F10CE002F11402D8BFC2F1200C1C
:1003680001FA02F120FA0CFCDCBF41EA0C019040D2
:10037800E41AA2BF01EB0451294330BD6FEA04041B
:100388001F3C1CDA0C340EDC04F11404C4F1200206
:1003980020FA04F001FA02F340EA030021FA04F318
:1003A80045EA030130BDC4F10C04C4F1200220FA6F
:1003B80002F001FA04F340EA0300294630BD21FAAD
:1003C80004F0294630BD94F0000F83F4801306BF73
:1003D80081F480110134013D4EE77FEA645C18BF67
:1003E8007FEA655C29D094EA050F08BF90EA020FFE
:1003F80005D054EA000C04BF1946104630BD91EAF6
:10040800030F1EBF0021002030BD5FEA545C05D1F8
:100418004000494128BF41F0004130BD14F5800437
:100428003CBF01F5801130BD01F0004545F0FE41AB
:1004380041F470014FF0000030BD7FEA645C1ABFE0
:10044800194610467FEA655C1CBF0B46024650EA17
:10045800013406BF52EA033591EA030F41F4002143
:1004680030BD00BF90F0000F04BF0021704730B5C9
:100478004FF4806404F132044FF000054FF000019E
:1004880050E700BF90F0000F04BF0021704730B55F
:100498004FF4806404F1320410F0004548BF404234
:1004A8004FF000013EE700BF42004FEAE2014FEA89
:1004B80031014FEA02701FBF12F07F4393F07F4F64
:1004C80081F06051704792F0000F14BF93F07F4F96
:1004D800704730B54FF4607401F0004521F00041D9
:1004E80020E700BF50EA010208BF704730B54FF05F
:1004F80000050AE050EA010208BF704730B511F064
:10050800004502D5404261EB41014FF4806404F19B
:1005180032045FEA915C3FF4DCAE4FF003025FEA1D
:10052800DC0C18BF03325FEADC0C18BF033202EBA5
:10053800DC02C2F1200300FA03FC20FA02F001FAFF
:1005480003FE40EA0E0021FA02F11444C1E600BF9E
:1005580070B54FF0FF0C4CF4E06C1CEA11541DBF51
:100568001CEA135594EA0C0F95EA0C0F00F0DEF81C
:100578002C4481EA030621EA4C5123EA4C5350EA01
:10058800013518BF52EA033541F4801143F4801352
:1005980038D0A0FB02CE4FF00005E1FB02E506F0E3
:1005A8000042E0FB03E54FF00006E1FB03569CF038
:1005B800000F18BF4EF0010EA4F1FF04B6F5007F3E
:1005C80064F5407404D25FEA4E0E6D4146EB0606B0
:1005D80042EAC62141EA55514FEAC52040EA5E5039
:1005E8004FEACE2EB4F1FD0C88BFBCF5E06F1ED8E3
:1005F800BEF1004F08BF5FEA500E50F1000041EB1A
:10060800045170BD06F0004646EA010140EA0200C6
:1006180081EA0301B4EB5C04C2BFD4EB0C0541EAE8
:10062800045170BD41F480114FF0000E013C00F3FD
:10063800AB8014F1360FDEBF002001F0004170BD21
:10064800C4F10004203C35DA0C341BDC04F114043A
:10065800C4F1200500FA05F320FA04F001FA05F2C6
:1006680040EA020001F0004221F0004110EBD37093
:1006780021FA04F642EB06015EEA430E08BF20EABF
:10068800D37070BDC4F10C04C4F1200500FA04F362
:1006980020FA05F001FA04F240EA020001F00041F4
:1006A80010EBD37041F100015EEA430E08BF20EA67
:1006B800D37070BDC4F1200500FA05F24EEA020EAF
:1006C80020FA04F301FA05F243EA020321FA04F0DE
:1006D80001F0004121FA04F220EA020000EBD37095
:1006E8005EEA430E08BF20EAD37070BD94F0000F95
:1006F8000FD101F00046400041EB010111F4801FC9
:1007080008BF013CF7D041EA060195F0000F18BF79
:10071800704703F00046520043EB030313F4801FB5
:1007280008BF013DF7D043EA0603704794EA0C0F6F
:100738000CEA135518BF95EA0C0F0CD050EA410685
:1007480018BF52EA4306D1D181EA030101F0004102
:100758004FF0000070BD50EA410606BF104619462A
:1007680052EA430619D094EA0C0F02D150EA013636
:1007780013D195EA0C0F05D152EA03361CBF104677
:1007880019460AD181EA030101F0004141F0FE4116
:1007980041F470014FF0000070BD41F0FE4141F49A
:1007A800780170BD70B54FF0FF0C4CF4E06C1CEA9A
:1007B80011541DBF1CEA135594EA0C0F95EA0C0F4F
:1007C80000F0A7F8A4EB050481EA030E52EA03350A
:1007D8004FEA013100F088804FEA03334FF080552B
:1007E80045EA131343EA12634FEA022245EA111558
:1007F80045EA10654FEA00260EF000419D4208BF09
:10080800964244F1FD0404F5407402D25B084FEAB5
:100818003202B61A65EB03055B084FEA32024FF461
:1008280080104FF4002CB6EB020E75EB030E22BFBE
:10083800B61A754640EA0C005B084FEA3202B6EB7E
:10084800020E75EB030E22BFB61A754640EA5C002D
:100858005B084FEA3202B6EB020E75EB030E22BFBD
:10086800B61A754640EA9C005B084FEA3202B6EBBE
:10087800020E75EB030E22BFB61A754640EADC007D
:1008880055EA060E18D04FEA051545EA16754FEADF
:1008980006164FEAC30343EA52734FEAC2025FEAFD
:1008A8001C1CC0D111F4801F0BD141EA00014FF08C
:1008B80000004FF0004CB6E711F4801F04BF01435D
:1008C8000020B4F1FD0C88BFBCF5E06F3FF6AFAE79
:1008D800B5EB030C04BFB6EB020C5FEA500C50F109
:1008E800000041EB045170BD0EF0004E4EEA11318C
:1008F80014EB5C04C2BFD4EB0C0541EA045170BD93
:1009080041F480114FF0000E013C90E645EA060ED6
:100918008DE60CEA135594EA0C0F08BF95EA0C0F04
:100928003FF43BAF94EA0C0F0AD150EA01347FF44C
:1009380034AF95EA0C0F7FF425AF104619462CE723
:1009480095EA0C0F06D152EA03353FF4FDAE104686
:10095800194622E750EA410618BF52EA43067FF4D7
:10096800C5AE50EA41047FF40DAF52EA43057FF467
:10097800EBAE12E74FF0FF3C06E000BF4FF0010C72
:1009880002E000BF4FF0010C4DF804CD4FEA410CD6
:100998007FEA6C5C4FEA430C18BF7FEA6C5C1BD0A3
:1009A80001B050EA410C0CBF52EA430C91EA030F24
:1009B80002BF90EA020F0020704710F1000F91EA81
:1009C800030F58BF994208BF90422CBFD8176FEA4F
:1009D800E37040F0010070474FEA410C7FEA6C5C1D
:1009E80002D150EA013C07D14FEA430C7FEA6C5C24
:1009F800D6D152EA033CD3D05DF8040B704700BF50
:100A08008446104662468C461946634600E000BF9D
:100A180001B5FFF7B7FF002848BF10F1000F01BD6F
:100A28004DF808EDFFF7F4FF0CBF012000205DF83A
:100A380008FB00BF4DF808EDFFF7EAFF34BF0120BF
:100A480000205DF808FB00BF4DF808EDFFF7E0FF58
:100A580094BF012000205DF808FB00BF4DF808EDA9
:100A6800FFF7CEFF94BF012000205DF808FB00BF10
:100A78004DF808EDFFF7C4FF34BF012000205DF8F2
:100A880008FB00BF4FEA410212F5001215D211D53A
:100A98006FF47873B3EB625212D94FEAC12343F073
:100AA800004343EA505311F0004F23FA02F018BFF5
:100AB800404270474FF00000704750EA013005D1BE
:100AC80011F0004008BF6FF0004070474FF0000081
:100AD800704700BF4FEA4102B2F1E04324BFB3F5CB
:100AE800001CDCF1FE5C0DD901F0004C4FEAC0029D
:100AF8004CEA5070B2F1004F40EB830008BF20F081
:100B08000100704711F0804F21D113F13872BCBF3A
:100B180001F00040704741F480114FEA5252C2F18F
:100B28001802C2F1200C10FA0CF320FA02F018BFD8
:100B380040F001004FEAC1234FEAD32303FA0CFC2B
:100B480040EA0C0023FA02F34FEA4303CCE77FEABA
:100B5800625307D150EA01331EBF4FF0FE4040F404
:100B68004000704701F0004040F0FE4040F40000B3
:100B7800704700BF80F0004002E000BF81F00041F4
:100B880042001FBF5FEA410392EA030F7FEA226C2B
:100B98007FEA236C6AD04FEA1262D2EB1363C1BFBB
:100BA800D218414048404140B8BF5B42192B88BF2A
:100BB800704710F0004F40F4000020F07F4018BF4D
:100BC800404211F0004F41F4000121F07F4118BF6D
:100BD800494292EA030F3FD0A2F1010241FA03FC15
:100BE80010EB0C00C3F1200301FA03F100F00043FD
:100BF80002D5494260EB4000B0F5000F13D3B0F1C5
:100C0800807F06D340084FEA310102F10102FE2A33
:100C180051D2B1F1004F40EBC25008BF20F00100A3
:100C280040EA03007047490040EB000010F4000F51
:100C3800A2F10102EDD1B0FA80FCACF1080CB2EBE4
:100C48000C0200FA0CF0AABF00EBC2505242184343
:100C5800BCBFD0401843704792F0000F81F40001E8
:100C680006BF80F400000132013BB5E74FEA4103BB
:100C78007FEA226C18BF7FEA236C21D092EA030F27
:100C880004D092F0000F08BF0846704790EA010FA1
:100C98001CBF0020704712F07F4F04D1400028BFCE
:100CA80040F00040704712F100723CBF00F50000B0
:100CB800704700F0004343F0FE4040F400007047E6
:100CC8007FEA226216BF08467FEA23630146420292
:100CD80006BF5FEA412390EA010F40F480007047A5
:100CE8004FF0000304E000BF10F0004348BF40424B
:100CF8005FEA000C08BF704743F0964301464FF087
:100D080000001CE050EA010208BF70474FF00003E2
:100D18000AE000BF50EA010208BF704711F0004323
:100D280002D5404261EB41015FEA010C02BF8446F3
:100D38000146002043F0B64308BFA3F18053A3F552
:100D48000003BCFA8CF2083AA3EBC25310DB01FA99
:100D580002FC634400FA02FCC2F12002BCF1004F1D
:100D680020FA02F243EB020008BF20F001007047AE
:100D780002F1200201FA02FCC2F1200250EA4C0002
:100D880021FA02F243EB020008BF20EADC70704748
:100D98004FF0FF0C1CEAD0521EBF1CEAD15392EA56
:100DA8000C0F93EA0C0F6FD01A4480EA010C400232
:100DB80018BF5FEA41211ED04FF0006343EA50108C
:100DC80043EA5111A0FB01310CF00040B1F5000FCE
:100DD8003EBF490041EAD3715B0040EA010062F17D
:100DE8007F02FD2A1DD8B3F1004F40EBC25008BF67
:100DF80020F00100704790F0000F0CF0004C08BF85
:100E080049024CEA502040EA51207F3AC2BFD2F151
:100E1800FF0340EAC250704740F400004FF000035F
:100E2800013A5DDC12F1190FDCBF00F00040704799
:100E3800C2F10002410021FA02F1C2F1200200FAD7
:100E480002FC5FEA310040F1000053EA4C0308BF9E
:100E580020EADC70704792F0000F00F0004C02BFEF
:100E6800400010F4000F013AF9D040EA0C0093F06A
:100E7800000F01F0004C02BF490011F4000F013BC4
:100E8800F9D041EA0C018FE70CEAD15392EA0C0F32
:100E980018BF93EA0C0F0AD030F0004C18BF31F09D
:100EA800004CD8D180EA010000F00040704790F073
:100EB800000F17BF90F0004F084691F0000F91F017
:100EC800004F14D092EA0C0F01D142020FD193EADD
:100ED8000C0F03D14B0218BF084608D180EA010065
:100EE80000F0004040F0FE4040F40000704740F041
:100EF800FE4040F4400070474FF0FF0C1CEAD0520F
:100F08001EBF1CEAD15392EA0C0F93EA0C0F69D06A
:100F1800A2EB030280EA010C49024FEA402037D0D5
:100F28004FF0805343EA111143EA10130CF00040CC
:100F38008B4238BF5B0042F17D024FF4000C8B42BC
:100F480024BF5B1A40EA0C00B3EB510F24BFA3EB9C
:100F5800510340EA5C00B3EB910F24BFA3EB91036C
:100F680040EA9C00B3EBD10F24BFA3EBD10340EAC6
:100F7800DC001B0118BF5FEA1C1CE0D1FD2A3FF60C
:100F880050AF8B4240EBC25008BF20F001007047C1
:100F98000CF0004C4CEA50207F32C2BFD2F1FF0364
:100FA80040EAC250704740F400004FF00003013A95
:100FB80037E792F0000F00F0004C02BF400010F439
:100FC800000F013AF9D040EA0C0093F0000F01F04D
:100FD800004C02BF490011F4000F013BF9D041EA6F
:100FE8000C0195E70CEAD15392EA0C0F08D14202A2
:100FF8007FF47DAF93EA0C0F7FF470AF084676E775
:1010080093EA0C0F04D14B023FF44CAF08466EE74D
:1010180030F0004C18BF31F0004CCAD130F000421B
:101028007FF45CAF31F000437FF43CAF5FE700BF73
:101038004FF0FF3C06E000BF4FF0010C02E000BF9C
:101048004FF0010C4DF804CD4FEA40024FEA41033E
:101058007FEA226C18BF7FEA236C11D001B052EAF4
:10106800530C18BF90EA010F58BFB2EB030088BFBA
:10107800C81738BF6FEAE17018BF40F00100704729
:101088007FEA226C02D15FEA402C05D17FEA236C0B
:10109800E4D15FEA412CE1D05DF8040B704700BF52
:1010A800844608466146FFE70FB5FFF7C9FF0028E9
:1010B80048BF10F1000F0FBD4DF808EDFFF7F4FF22
:1010C8000CBF012000205DF808FB00BF4DF808EDBB
:1010D800FFF7EAFF34BF012000205DF808FB00BFDE
:1010E8004DF808EDFFF7E0FF94BF012000205DF800
:1010F80008FB00BF4DF808EDFFF7D2FF94BF0120B1
:1011080000205DF808FB00BF4DF808EDFFF7C8FFA9
:1011180034BF012000205DF808FB00BF4FEA400201
:10112800B2F1FE4F0FD34FF09E03B3EB12620DD90D
:101138004FEA002343F0004310F0004F23FA02F077
:1011480018BF404270474FF00000704712F1610F1E
:1011580001D1420205D110F0004008BF6FF00040F5
:1011680070474FF0000070474BB942B9002908BFDB
:10117800002802D04FF0FF31084600F03BB882B09B
:10118800EC462DE9005000F01DF8DDF804E002B04F
:101198000CBC70472DE9F0411646984604460D46AA
:1011A80000F02AF806FB01FCA6FB002300FB08C799
:1011B800FB18A21A65EB0303069CC4E90023BDE8EB
:1011C800F08100BF2DE9F041904606460F461D46C6
:1011D80000F070F900FB05F3A0FB084508FB013897
:1011E800069B4544341B67EB0505C3E90045BDE88C
:1011F800F08100BF704700BF00292DE9F00F1D46A0
:10120800C0F29D800024002DC0F2948080460F46D5
:1012180094461E46E3BB8A4255D9B2FA82F747B1D3
:10122800C7F1200520FA05F601FA07F1BA40B840DF
:101238003143170CB1FBF7F61FFA82FC07FB1611B6
:101248000CFB06F5030C43EA01439D4208D9711EC5
:101258009B1880F013819D4240F21081023E9B183A
:10126800591BB1FBF7F507FB15130CFB05FC80B206
:1012780040EA03418C4507D96B1E8A1880F000812B
:10128800944540F2FD80023D45EA0641002503E011
:101298008B420CD9002529460A462B4614B15242E6
:1012A80063EB430310461946BDE8F00F7047B3FAE5
:1012B80083F5002D40F087808B4201D38242EAD823
:1012C80000250121E8E712B90126B6FBF2F2B2FACD
:1012D80082F6002E39D18E1A130C1FFA82FC0125D2
:1012E800B6FBF3F703FB17610CFB07F84FEA10494D
:1012F80049EA0146B04506D9791EB61802D2B0456A
:1013080000F2D3800F46C8EB0606B6FBF3F103FBE9
:1013180011630CFB01FC80B240EA03439C4506D9EB
:101328004E1E9A1802D2944500F2C280314641EA14
:101338000741B1E7E443524263EB430366E74042A7
:1013480061EB41014FF0FF345DE7B240C6F120097F
:1013580021FA09F720FA09F901FA06F1130CB7FB8B
:10136800F3F81FFA82FC03FB18770CFB08F549EA2F
:1013780001094FEA194141EA0747B040BD420AD97D
:10138800BF1808F1FF3680F08E80BD4240F28B8096
:10139800A8F10208BF18791BB1FBF3F503FB151779
:1013A8000CFB05F61FFA89F949EA07418E4206D96E
:1013B8006F1E891871D28E426FD9023D89188E1B13
:1013C80045EA08458CE7C5F1200122FA01F306FA3F
:1013D80005F627FA01F207FA05F720FA01F11E438C
:1013E8004FEA1649B2FBF9F81FFA86FA09FB1822E8
:1013F8000AFB08FB0F433B0C43EA024293450CFAF5
:1014080005FC08D9921908F1FF314AD2934548D909
:10141800A8F102089219CBEB0203B3FBF9F109FB1F
:1014280011320AFB01FABFB247EA02439A4506D9CC
:101438004A1E9B1933D29A4531D902399B1941EA80
:1014480008410F0C1FFA8CF808FB07F68AB24FEA1E
:101458001C4C08FB02F80CFB02620CFB07FC02EBBD
:101468001842964288BF0CF5803CCAEB03030CEB8C
:10147800124C63450ED305D000250DE70E46EFE666
:101488001D4601E700FA05F01FFA88F808EB024547
:10149800A842F1D201390025FEE63D468FE7114604
:1014A800CDE78846B7E7B04675E7023FB6182AE7A2
:1014B80002393CE72DE9F007144605460E46002B95
:1014C8003DD18A4249D9B2FA82F747B1C7F1200122
:1014D80020FA01F206FA07F6BC40BD401643220C7A
:1014E800B6FBF2F0A1B202FB106601FB00F32F0C71
:1014F80047EA0646B34208D9471E361980F0FA80F3
:10150800B34240F2F78002383619F61AB6FBF2F306
:1015180002FB136201FB03F1ADB245EA02429142BC
:1015280007D95E1E121980F0E780914240F2E480EC
:10153800023B43EA00400021BDE8F00770478B42B8
:1015480043D8B3FA83F4002C42D18B4202D38242AF
:1015580000F2E18000210120EEE712B90127B7FB74
:10156800F2F4B4FA84F2002A40F089800A1B230CB2
:10157800A7B20121B2FBF3F603FB162207FB06F024
:101588004FEA154C4CEA0242904207D9121906F16B
:10159800FF3C02D2904200F2D0806646121AB2FB9B
:1015A800F3F003FB102307FB00F7ADB245EA034352
:1015B8009F4207D9421E1B1980F0A0809F4240F22B
:1015C8009D80023840EA0640B6E700210846B3E7A6
:1015D800C4F1200622FA06F703FA04F321FA06F505
:1015E80001FA04F120FA06F63B434FEA134CB5FB27
:1015F800FCF71FFA83F80CFB175508FB07F946EAB6
:10160800010A4FEA1A4141EA0545A94502FA04F2DE
:1016180004D97E1EED18C0F081803746C9EB05015C
:10162800B1FBFCF60CFB161508FB06F81FFA8AFA44
:101638004AEA0541884503D9751EC91874D32E4650
:1016480046EA0746370C1FFA82FC0CFB07F5120C1A
:10165800B3B20CFB03FC02FB035302FB07F203EBE0
:101668001C439D4288BF02F58032C8EB010102EBA2
:10167800134291424CD343D0304600215CE794405A
:10168800C2F1200521FA05F620FA05F501FA02F162
:10169800230CB6FBF3FCA7B203FB1C6607FB0CF894
:1016A80029430D0C45EA0646B04500FA02F508D96B
:1016B80036190CF1FF303ED2B0453CD9ACF1020CE2
:1016C8003619C8EB0602B2FBF3F003FB102607FB42
:1016D80000F889B241EA0642904506D9461E121919
:1016E80027D2904525D902381219C8EB020240EAE0
:1016F8000C413FE7384608E733461AE7104661E7EA
:1017080000FA04F01FFA8CFC0CEB03439842B3D2A6
:10171800701E002110E7214620460DE7A9457FF6F7
:101728007CAF023FED1879E7884588D9023EC91891
:1017380086E73046D9E78446C3E7023E12192DE70B
:10174800002100F004B80D4B5B58435004310C489D
:101758000C4B42189A42FFF4F6AF0B4A00F003B85C
:10176800002342F8043B094B9A42FFF4F9AF04F016
:1017780011F907F015FC03F0C5F8704728EB0008CD
:1017880000000020AC090020AC090020581A0020F5
:10179800FFF7FEBF40F0BF604FF46D4340F40031E7
:1017A800CEF20003D9607047C37830B47BB90078B3
:1017B800012100F01F0201FA02F140094FF46143D0
:1017C800CEF20003203043F8201030BC70474FF4AD
:1017D8006D44CEF20004E5684478EA43C2F302237C
:1017E8000F2525FA03F2C3F1040104FA01F4857800
:1017F800037802EA050121430A0103F16043D1B2EB
:1018080003F5614282F800130078012100F01F03FC
:1018180001FA03F14FF46143CEF20003420943F8A1
:101828002210D2E708B54FF41053C4F201039842CE
:1018380018D04FF42051C4F2010188421ED04FF451
:101848007052C4F20102904200D008BD01214FF449
:10185800004000F0DBFA4FF400400021BDE80840EA
:1018680000F0D4BA01214FF4007000F0CFFA4FF421
:1018780000700021BDE8084000F0C8BA01214FF40B
:10188800806000F0C3FA4FF480600021BDE8084092
:1018980000F0BCBA42680B6870B422F470250C7969
:1018A80025F4807646EA030242EA04234360866808
:1018B8008C68CA684FF2FD73CFF6F1734D792243F5
:1018C8003340134343EA45028260097CC26A4B1ED7
:1018D80022F47001DAB241EA0253C36270BC704765
:1018E800836819B923F001018160704743F0010250
:1018F80082607047836843F008018160704700BFC9
:101908008068C0F3C0007047836843F004018160B9
:10191800704700BF8068C0F380007047837930B497
:101928003BB34FF48063C4F2010301681D68CC43E4
:1019380025401D605D6802792C4002F180455C609D
:1019480005F5823215684479294311600268986860
:10195800D14308409860D868102C01EA0001D9608A
:1019680013D004F1804303F5823421680A432260CE
:1019780009E00279016802F1804000F582331A68B3
:1019880022EA01021A6030BC7047986810439860D8
:10199800D9680A43DA60F6E74FF48063C4F20103BA
:1019A8001A691043186170474FF48063C4F2010349
:1019B80058617047CA7830B4D30648BF8B7802F0B4
:1019C8000F0448BF1C430B8813F0FF0F2FD013F0F0
:1019D8000105016840F0EC8003F00205ADB2002D6E
:1019E80040F0D08003F00405ADB2002D40F0D58062
:1019F80003F00805ADB2002D40F0988003F0100503
:101A0800ADB2002D40F09D8003F02005ADB2002D51
:101A180040F0A28003F04005ADB2002D40F0A78051
:101A280003F08005ADB2002D40F0CD800160FF2BA2
:101A380028D903F480718DB24168002D2DD103F4AB
:101A48000075ADB2002D33D103F48065ADB2002D21
:101A580039D103F40065ADB2002D3FD103F48055B0
:101A6800ADB2002D44D103F40055ADB2002D49D1DB
:101A780003F48045ADB2002D4ED103F400439BB270
:101A880013B9416030BC7047282A64F31F7100F015
:101A9800B080482A08BF0361F3E721F00F01282A24
:101AA80044EA010100F0A380482AC8D10561C6E7CD
:101AB80021F0F001282A41EA041100F09680482A12
:101AC800C2D10561C0E721F47061282A41EA0421E6
:101AD80000F08980482ABCD10561BAE721F4704139
:101AE800282A41EA04317CD0482AB7D10561B5E7F4
:101AF80021F47021282A41EA044170D0482AB2D141
:101B08000561B0E721F47001282A41EA045164D044
:101B1800482AADD10561ABE721F07061282A41EA76
:101B2800046158D0482AA8D10561A6E721F470417C
:101B3800282A41EA043168D0482A7FF45FAF05615A
:101B48005CE721F47021282A41EA04415BD0482A45
:101B58007FF45AAF056157E721F47001282A41EA5A
:101B6800045156D0482A7FF455AF056152E721F059
:101B78007061282A41EA046149D0482A7FF450AFAD
:101B880005614DE721F0F001282A41EA041138D017
:101B9800482A7FF427AF056124E721F47061282AD9
:101BA80041EA04212BD0482A7FF422AF05611FE7C0
:101BB80021F00F01282A44EA01011CD0482A7FF4A9
:101BC8000BAF056108E7282A64F31F7115D0482A6E
:101BD80008BF05612AE745614FE7456148E7456168
:101BE80041E745613AE7456133E745612CE74561DF
:101BF80025E7436145E74561EEE6456116E745613E
:101C0800F6E64561EEE64561FEE64561F6E64561C4
:101C180006E74561FEE600BF836819420CBF002055
:101C28000120704701617047416170470AB94161FD
:101C380070470161704700BFC3685940C160704771
:101C480000230028C4F2010300F44012B4BFDB698A
:101C58005B68B2F5401F30B484B222D0C20217D5F7
:101C6800C0F30342032505FA02F223EA020343F014
:101C7800706321B1410D0A0104FA02F423430021E3
:101C8800C4F201010028B4BFCB614B6030BC70477F
:101C9800420D120104FA02F223EA020343F07063D0
:101CA800E7E70022C4F20102556823F0706325F0CB
:101CB80070655560DDE700BF01F0030310B40F2223
:101CC8009C0002FA04F200FA04F089080023C4F226
:101CD8000103023153F8214024EA020243F821208B
:101CE80053F82120104343F8210010BC704700BF6F
:101CF800D823C4F242231860704700BF4FF48053C2
:101D0800C4F202035A6822F44041084358607047FD
:101D18004FF48053C4F202035A6810B402F00C0165
:101D2800042901D0082928D04FF49052C0F27A0231
:101D380002604FF48053C4F202035C681C49C4F388
:101D480003140C5D22FA04F242605C68C4F30224B6
:101D58000C5D22FA04F484605C68C4F3C224095D53
:101D680022FA01F2C2605B681249C3F38133CB5C8B
:101D7800B2FBF3F2026110BC70475C685968C4F3A7
:101D880083420232CC030AD55B68990307D44FF427
:101D98009054C0F27A0404FB02F20260C9E74FF4DF
:101DA8001061C0F23D0101FB02F20260C1E700BF11
:101DB80004000020000000204FF48053C4F2020306
:101DC8005A6919B922EA00005861704710435861EE
:101DD800704700BF4FF48053C4F202039A6919B9DF
:101DE80022EA00009861704710439861704700BF6D
:101DF8004FF48053C4F20203DA6919B922EA0000E9
:101E0800D86170471043D861704700BF4FF48053C2
:101E1800C4F20203DA6819B922EA0000D8607047F0
:101E28001043D860704700BF4FF430520388C4F2A3
:101E38000102904270B49BB21AD04FF45052C4F2CF
:101E48000102904214D0B0F1804F11D04FF480625B
:101E5800C4F2000290420BD04FF40062C4F20002B8
:101E6800904205D04FF44062C4F20002904205D17E
:101E78004FF68F724C881A4042EA04034FF480529E
:101E8800C4F20002904234D04FF4A052C4F20002CF
:101E980090422ED04FF6FF42CE881A404FF430536E
:101EA8008D880C88C4F201033243984202808585EC
:101EB80004851BD04FF45052C4F20102904215D051
:101EC8004FF48043C4F2010398420FD04FF4884284
:101ED800C4F20102904209D04FF49043C4F20103C6
:101EE800984203D00122828270BC7047097A018629
:101EF800F8E703808B88838509880185F2E700BFAE
:101F0800038C2DE9F00123F001021404250C05844B
:101F1800078C0D8984884E88038B2E4323F0730227
:101F28004FF4305527F0020312041B040F88C4F243
:101F38000105120C1B0CB6B2A842A4B242EA070271
:101F480046EA03031FD04FF45055C4F20105A842D6
:101F580019D04FF48045C4F20105A84213D04FF4BC
:101F68008845C4F20105A8420DD04FF49045C4F24B
:101F78000105A84207D0C98884800283818603842A
:101F8800BDE8F00170474FF6F776B1F80AC0B1F82E
:101F98000E808F891E4046EA0C0C4FF6FB738E8824
:101FA8004FF6FF4548EA070725400CEA0303BCB291
:101FB80033432C43DFE700BF038CF0B423F0100257
:101FC8001404250C0584068C848826F02002078BCF
:101FD80016040D89320C27F4E6431B0442EA051265
:101FE8000F884E884FF430551B0CC4F2010543EAA4
:101FF800072342EA0612A842A4B29BB292B20CD0BE
:102008004FF45055C4F20105A84206D0C98884800F
:10201800038301870284F0BC70474F894FF67F76AF
:1020280016404FF2FF35B1F80CC0254046EA0716B6
:102038004FF6BF728F88CC89324045EA8C0542EA58
:10204800071245EA840492B2A4B2DFE7038CF0B425
:1020580023F480721404250C0584068C0D8926F45B
:1020680000773A048488838B120C23F0730642EAC3
:1020780005224F884FF430553304C4F201050E8809
:102088001B0C42EA0722A842A4B243EA060392B212
:102098000CD04FF45055C4F20105A84206D0C988A7
:1020A8008480838381870284F0BC70474F894FF214
:1020B800FF7616404CF6FF75B1F80CC0254046EA8D
:1020C80007264FF6FF328F88CC89324045EA0C1537
:1020D80042EA072245EA041492B2A4B2DFE700BF3D
:1020E8000B8830B44D888C88CA882B4323430D89CC
:1020F8004C89134389892B4323430B439AB2A0F895
:10210800442030BC704700BF038829B923F001017F
:102118000A04130C0380704799B241F0010202804F
:10212800704700BFB0F8443021B959044A0CA0F8F0
:10213800442070476FEA43436FEA53418AB2A0F8DC
:1021480044207047038B23F0080213041A0C114330
:1021580001837047038B23F4006213041A0C42EACC
:1021680001218BB203837047838B23F00802130489
:102178001A0C114381837047038A70B5044623F40F
:102188004050CA880D4601040E0C16432682A389C6
:10219800AA88288923F4B056698926F00C031043CD
:1021A8001A04160C084340EA06018BB2A381A08AE0
:1021B800AA8920F4407631040B0C86B0134301A899
:1021C800A382FFF7A5FD4FF46056A089C4F201066B
:1021D800B44202B20CBF049E039E002A21DB2D6884
:1021E80006EB860101EB8103AE00B3FBF6F148F282
:1021F8001F53C5F2EB13A3FB0106A089720900B2B5
:1022080064251601002802FB151113DB0A0132327E
:10221800A3FB0203C3F34310304383B2238106B008
:1022280070BD286806EB860202EB82054300B5FB09
:10223800F3F1DCE7C9003231A3FB0112C2F342100B
:102248003043EAE70A8830B4038A4D888C882A43E9
:10225800C98823F470631B0422430A43190C0A43F8
:1022680093B2038230BC704700230380438083808D
:10227800C3807047838929B923F400510A04130CD9
:102288008381704799B241F400528281704700BF40
:1022980001F01F0310B4C1F342110124A14204FA52
:1022A80003F30DD002290DD014302AB9026822EAAE
:1022B8000301016010BC7047026813430360F9E72B
:1022C8000C30F2E71030F0E730B54FF4805087B0AB
:1022D800082300246946C4F20100ADF800308DF8E7
:1022E8000340FFF767FB4FF40040FFF707FD0121AC
:1022F8004FF40070FFF76EFD4FF41050C4F2010068
:10230800FFF790FA4FF410504FF460220125C4F201
:10231800010001A9039201948DF808408DF8094045
:1023280004948DF81450FFF7B5FA4FF41050C4F226
:1023380001002946FFF7D4FA4FF41050C4F2010007
:10234800FFF7D8FA4FF41050C4F20100FFF7D8FA9B
:102358000028F7D14FF41050C4F20100FFF7D4FA67
:102368004FF41050C4F20100FFF7D4FA0028F7D157
:1023780007B030BD0FB410B5C2B044AC54F8042B4C
:10238800FF21234602A8019406F05EFF02A803F08D
:1023980061FC02A806F0FCFE014602A803F090FDCD
:1023A80042B0BDE8104004B0704700BF0FB410B58C
:1023B800C2B044AC54F8042B02A8FF212346019470
:1023C80006F042FF02A803F045FC42B0BDE8104009
:1023D80004B0704700B50C4B83B01868002804DBC4
:1023E8004FF0FF321A6003B000BD03F079FD38B139
:1023F8000DF10700012103F079FD9DF80700F2E7D0
:1024080003F010FCEFE700BF1400002010B5002413
:1024180007E0642C09D0FFF7DDFF0134002804DB56
:102428000134FFF7D7FF0028F3DA204610BD00BFBC
:1024380010B582B002AC04F8010D03F003FC20468D
:10244800012103F03DFD02B010BD00BF704700BF81
:1024580008B503F0FFFBBDE8084003F0E9BB00BF87
:1024680008B503F077FC4DF6A850C0F60000FFF75A
:10247800EFFF03F00FFD4DF6B850C0F60000BDE8C1
:102488000840FFF7E5BF00BF70B5FFF7A3FF041EC4
:1024980053DB03F039FDA4F12B004B284DD8DFE8BE
:1024A80010F002014C00F0004C004C004C004C00B5
:1024B8004C004C004C004C004C004C004C004C00B4
:1024C8004C004C004C004C004C004C004C004C00A4
:1024D8004C004C004C004C004C00EC004C004C00F4
:1024E8004C004C004C004C004C004C004C004C0084
:1024F800E1004C004C004C004C004C004C004C00DF
:102508004C004C004C004C004C004C004C00DB00D4
:10251800D000CA00C4004C004C009700870083001C
:102528007F004C004C004C004C00790073004C00BC
:102538006D005E004C0053004D0070BD5E485F4961
:10254800BDE87040FFF716BF5D4B1C6804F024FE21
:1025580002465C482146BDE87040FFF727BF5A4B4A
:102568005A481A6882F00102594C5A491A60002ADE
:1025780008BF2146BDE87040FFF7FCBE564B5748E0
:10258800196881F00102EFE7554B56481C6884F042
:102598000102E9E7544B186880F001025348E3E769
:1025A800534B00221A6070BD51480121016070BD73
:1025B800504D0024FFF70EFF0028FBDBFE28D8BF94
:1025C800605501340C2CF5D1BDE8704000F026B9F7
:1025D800484C642003F0ECFC7820FFF729FF2078B2
:1025E800FFF726FF6078FFF723FFA078FFF720FFAB
:1025F800E078FFF71DFF2079FFF71AFF6079FFF7F2
:1026080017FFA079FFF714FFE079FFF711FF207A91
:10261800FFF70EFF607AFFF70BFFA07AFFF708FFBE
:10262800E07ABDE87040FFF703BF334B33481C68BE
:1026380084F0010298E7324B32481A6882F00102AE
:1026480092E73148FFF796FE4FF47A7003F0B0FC3A
:10265800BDE8704003F01EB82C4B2D48196881F076
:10266800010281E72B48FFF785FE4FF47A7003F0EB
:102678009FFCBDE8704003F003B8BDE8704000F06F
:102688008BB9254C4CF6CD41C3F6CC512068FEF7EA
:1026980075FA2060FDF708FF024620480B46BDE8A2
:1026A8007040FFF767BE1C4C4CF6CD41C3F6CC51C9
:1026B8002068FEF765FAECE7DCDE0008ECDE0008CF
:1026C800DC0E0020B0DE0008D009002098DE0008EB
:1026D800D0DD0008CCDD0008140A002074DE0008F4
:1026E800380A002058DE0008B40900203CDE000843
:1026F800180F002018000020DC09002028DE000840
:10270800B009002010DE0008ECDD0008D409002024
:10271800D4DD000888DE000824000020F4DE00086C
:1027280008B5002000F09EF9FE289CBF3A4B1870AF
:10273800052003F03DFC012000F094F9FE289CBF21
:1027480035494870052003F033FC022000F08AF96F
:10275800FE289CBF304A9070052003F029FC032016
:1027680000F080F9FE289CBF2B4BD870052003F0A1
:102778001FFC042000F076F9FE289CBF264908714A
:10278800052003F015FC052000F06CF9FE289CBF1D
:10279800214A5071052003F00BFC062000F062F975
:1027A800FE289CBF1C4B9871052003F001FC0720F4
:1027B80000F058F9FE289CBF1749C871052003F09E
:1027C800F7FB082000F04EF9FE289CBF124A107251
:1027D800052003F0EDFB092000F044F9FE289CBF1A
:1027E8000D4B5872052003F0E3FB0A2000F03AF97C
:1027F800FE289CBF08498872052003F0D9FB0B20EE
:1028080000F030F9FE289CBF034AD0720520BDE8CD
:10281800084003F0CDBB00BF1800002008B503F046
:1028280073FB002000F01EF9411C06D0594B1978A3
:10283800814202D0002000F0F7F8052003F0B8FB31
:10284800012000F00FF9421C06D052494978814214
:1028580002D0012000F0E8F8052003F0A9FB0220CF
:1028680000F000F9431C06D04A4A9178814202D010
:10287800022000F0D9F8052003F09AFB032000F0AD
:10288800F1F8411C06D0434BD978814202D003208D
:1028980000F0CAF8052003F08BFB042000F0E2F8F2
:1028A800421C06D03B490979814202D0042000F03D
:1028B800BBF8052003F07CFB052000F0D3F8431C8F
:1028C80006D0344A5179814202D0052000F0ACF894
:1028D800052003F06DFB062000F0C4F8411C06D06B
:1028E8002C4B9979814202D0062000F09DF80520F2
:1028F80003F05EFB072000F0B5F8421C06D025491E
:10290800C979814202D0072000F08EF8052003F033
:102918004FFB082000F0A6F8431C06D01D4A117A88
:10292800814202D0082000F07FF8052003F040FB28
:10293800092000F097F8411C06D0164B597A8142BD
:1029480002D0092000F070F8052003F031FB0A20BE
:1029580000F088F8421C06D00E49897A814202D0DC
:102968000A2000F061F8052003F022FB0B2000F09C
:1029780079F8431C06D0074AD17A814202D00B204D
:1029880000F052F8052003F013FBBDE8084003F0FF
:10299800C3BA00BF1800002038B54DF610704DF6C8
:1029A800207540F21804C0F60005C2F20004C0F613
:1029B8000000FFF7DFFC21782846FFF7DBFC2846FC
:1029C8006178FFF7D7FC2846A178FFF7D3FC2846A3
:1029D800E178FFF7CFFC28462179FFF7CBFC2846A2
:1029E8006179FFF7C7FC2846A179FFF7C3FC2846A1
:1029F800E179FFF7BFFC2846217AFFF7BBFC2846A0
:102A0800617AFFF7B7FC2846A17AFFF7B3FC28469E
:102A1800E17AFFF7AFFC4EF2F030C0F60000BDE8F7
:102A28003840FFF7A7BC00BF38B5044605200D465F
:102A380003F0BEFA01F004F8AE2001F09FF801F0AF
:102A480067FD204601F09AF801F062FD284601F082
:102A580095F801F05DFD01F019F80520BDE8384052
:102A680003F0A6BA38B50546174C012003F0A0FAC2
:102A78000023236000F0E4FFAE2001F07FF801F0AE
:102A880047FD284601F07AF801F042FD00F0FEFF0C
:102A9800012003F08DFA00F0D3FFAF2001F06EF8AB
:102AA80001F036FD01F0C0F9054601F03FF800F0ED
:102AB800EDFF012003F07CFA206800280CBF2846AF
:102AC8004FF0FF3038BD00BF5C1700202DE9F843F8
:102AD800394B00211868C4F27A41FEF759F9374991
:102AE800374E0968FEF74CF831680546FEF748F896
:102AF800344C074637606078FEF7F2F80021C4F2DC
:102B08007A41FEF7F9F92946FEF742F9804620791D
:102B1800FEF7E6F80021C4F2C821FEF7EDF92A4EC7
:102B2800814631682846FEF729F801464846FEF7EF
:102B38002FF941463560FEF723F84BF21771054629
:102B4800C3F6D1013846FEF723F901462846FEF7B9
:102B580017F81E4F1E4D3E6828603146FEF70EF8E6
:102B68001C4A40F6DB71C3F6C97110608046FEF757
:102B7800CBFA38B140F6DB713046C3F6C971FDF7C0
:102B8800FFFF286040F6DB714046CBF6C971FEF7BF
:102B98009DFA78B140F6DB713046C3F6C971FDF78E
:102BA800EDFF03462860E17918463B60BDE8F8432D
:102BB80002F03AB92B68F6E71C0F0020AC09002098
:102BC800F009002018000020080A0020BC09002095
:102BD800400F0020340F00202DE9F843394B002125
:102BE8005868C4F27A41FEF7D3F83749374E096876
:102BF800FDF7C6FF71680546FDF7C2FF344C07466E
:102C080077602078FEF76CF80021C4F27A41FEF76D
:102C180073F92946FEF7BCF88046E078FEF760F8BD
:102C28000021C4F2C821FEF767F92A4E81463168AF
:102C38002846FDF7A3FF01464846FEF7A9F8414696
:102C48003560FDF79DFF4BF217710546C3F6D101BC
:102C58003846FEF79DF801462846FDF791FF1E4FBE
:102C68001E4D7E6868603146FDF788FF1C4A40F6B5
:102C7800DB71C3F6C97150608046FEF745FA38B17A
:102C880040F6DB713046C3F6C971FDF779FF68601D
:102C980040F6DB714046CBF6C971FEF717FA78B1FA
:102CA80040F6DB713046C3F6C971FDF767FF03468E
:102CB8006860A17918467B60BDE8F84302F0D8B88F
:102CC8006B68F6E71C0F0020100A0020F0090020AE
:102CD80018000020D8090020BC090020400F00205F
:102CE800340F00202DE9F843394B00219868C4F2CD
:102CF8007A41FEF74DF83749374E0968FDF740FF2E
:102D0800B1680546FDF73CFF344C0746B760A0782C
:102D1800FDF7E6FF0021C4F27A41FEF7EDF82946F7
:102D2800FEF736F880466079FDF7DAFF0021C4F235
:102D3800C821FEF7E1F82A4E814631682846FDF79A
:102D48001DFF01464846FEF723F841463560FDF76A
:102D580017FF4BF217710546C3F6D1013846FEF747
:102D680017F801462846FDF70BFF1E4F1E4DBE689B
:102D7800A8603146FDF702FF1C4A40F6DB71C3F636
:102D8800C97190608046FEF7BFF938B140F6DB7133
:102D98003046C3F6C971FDF7F3FEA86040F6DB7153
:102DA8004046CBF6C971FEF791F978B140F6DB7170
:102DB8003046C3F6C971FDF7E1FE0346A860217AE3
:102DC8001846BB60BDE8F84302F076B8AB68F6E792
:102DD8001C0F0020B8090020F0090020180000206E
:102DE800340A0020BC090020400F0020340F0020C6
:102DF8002DE9F041364D374C9626354800F010FD48
:102E0800A968286804F080FCA9688046686804F00E
:102E18007BFC00210746C4F215312068FDF7B8FF96
:102E28004146FDF7ABFE0021C4F21631FEF764F807
:102E38000021C4F2153120606068FDF7A9FF014642
:102E48003846FDF79DFE0021C4F21631FEF754F80E
:102E58006060012003F0ACF81D4800F0E1FCA968AF
:102E6800286804F051FCA9688046686804F04CFCA6
:102E780000210746C4F215312068FDF789FF414655
:102E8800FDF77CFE0021C4F21631FEF735F800216B
:102E9800C4F2153120606068FDF77AFF01463846B4
:102EA800FDF76EFE0021C4F21631FEF725F8013E4B
:102EB8006060012003F07CF8013E064F9DD1064B6F
:102EC80079683A68002059601A609860BDE8F08116
:102ED800E0090020280F00201C0F00202DE9F84FE2
:102EE8001746926806460C46104611461D46FDF7E1
:102EF8004FFFD7F80480814641464046FDF748FF1A
:102F080001464846FDF73CFED7F800A0DDF82880CA
:102F180004F0FCFB0146504604F0F6FBB968834612
:102F2800786804F0F1FB00210746C4F2C621306836
:102F3800FDF72EFF5946FDF721FE0021C4F2C821F6
:102F4800FDF7DAFF00213060C4F2C6217068FDF792
:102F58001FFF01463846FDF713FE0021C4F2C821C1
:102F6800FDF7CAFF7060296881464046FDF710FFEB
:102F7800676801463846FDF703FE394682464846EB
:102F8800FDF7FCFD4BF21771C3F65111FDF700FF79
:102F980001465046FDF7F4FD6060834604F078FB77
:102FA8000746584604F040FB8146A868394600F1B8
:102FB8000040FDF7EDFE696882464846FDF7E8FEE9
:102FC80001465046FDF7DCFD01464046FDF7E0FEB0
:102FD800D4F800A001465046FDF7D2FD514683467D
:102FE8003068FDF7CBFD4BF21771C3F65111FDF7B1
:102FF800CFFE01465846FDF7C3FD2060A968484644
:1030080001F10041FDF7C4FE696806463846FDF740
:10301800BFFE01463046FDF7B1FD01464046FDF7CB
:10302800B7FE0146A068FDF7ABFDA060BDE8F88FCC
:10303800F8B5244D04462E680F4630464FF08041BF
:10304800FDF79CFD2146FEF75FF8002832D14FF0CE
:1030580080413046FDF794FD01462046FEF754F8BE
:10306800D0B9194A00232B6013601D46174C002164
:103078002068C4F21C21FDF78BFE2946FDF780FD70
:103088000021C4F22021FDF737FF034601462360E3
:103098003846FDF773FDF8BD46F266612046C3F673
:1030A800E6614FF040442C60FDF772FE0546064885
:1030B8000560DBE746F266612046C3F6E6614FF03D
:1030C8008044F0E7CC090020180A0020EC09002011
:1030D8002DE9F04FDFF8988199B0D8F80030834691
:1030E800581CC8F8000002F00FFF02F031FF16A8C4
:1030F80002F004FC4C4800F093FB16A802F006FC12
:1031080010904A4800F0B8FB16A802F0FFFBDFF861
:1031180064A111905146444A444B4548CDF800B04B
:10312800FFF7DCFE16A802F0F1FB424D1290697A17
:10313800414C312900F0A2816768404E3946306819
:10314800FDF71EFD3E4F306039682068FDF718FD19
:10315800AA7A3860302ADFF8209100F0B681364B21
:10316800D9F800109868FDF70BFDC9F8000016A8FB
:1031780002F0CCFB1390FFF72FFDFFF7A7FCFFF73A
:10318800B1FD16A802F0C2FB149016A802F0C6FB07
:103198002C4D844629684A1CB2F5FA7F2A6021DB47
:1031A800294B1868002869D128490A68002A40F084
:1031B8009A8027480368002B40F0D080254A13687E
:1031C800002B40F0E98024480168002940F0118173
:1031D800224A1368002B40F026812148016831B942
:1031E80000232B6002F098FE19B0BDE8F08F1D4C4B
:1031F8006068FDF759F9064620680F46FDF754F94F
:10320800CDE90001A068FDF74FF9CDE90201164AA2
:103218001068FDF749F93246CDE904013B461348E9
:10322800FFF7A8F8DCE700BFE0090020FC09002050
:10323800280F0020180000201C0A0020100A002077
:10324800AC0900200C0A0020DC090020D00900206D
:10325800380A0020140A0020B4090020B009002010
:10326800D4090020400F0020CC09002020E10008EC
:10327800C80900201C0F0020B8090020974AD8F878
:1032880000101368DAF800001591CDF830C00D93DE
:1032980002F096FE0146DAF804000F9102F090FE63
:1032A8000246DAF808000E9202F08AFE80460F986D
:1032B800FDF7FAF80E9BCDE900011846FDF7F4F882
:1032C800CDE902014046FDF7EFF80D9ACDE904017A
:1032D80015998348FFF74EF88249DDF830C00A682F
:1032E800002A3FF466AF5846CDF830C0FDF7DCF849
:1032F800DFF830828246D8F800008B46FDF7D4F814
:10330800CDE90001D8F80400FDF7CEF8CDE90201B7
:10331800D8F80800FDF7C8F8CDE90401DFF80882FD
:10332800D8F80000FDF7C0F8CDE90601D8F8040088
:10333800FDF7BAF8CDE90801D8F80800FDF7B4F8A8
:103348005B46CDE90A0152466748FFF713F867481C
:10335800DDF830C00368002B3FF430AFCDF830C043
:1033680001F040F9FDF7A0F80B46109902460191CB
:1033780011981299DDF830C00290039113981499AE
:103388000490CDF800C005915948FEF7F3FF594A5B
:103398001368002B3FF417AFDFF88081D8F80000DE
:1033A800FDF782F88246D8F804008B46FDF77CF8D2
:1033B800CDE90001D8F80800FDF776F8CDE902015B
:1033C8002068FDF771F8CDE904016068FDF76CF835
:1033D800CDE90601A068FDF767F85246CDE9080176
:1033E8005B464548FEF7C6FF4448016800293FF49C
:1033F800EFAE3868FDF758F8824630688B46FDF71F
:1034080053F8CDE90001D9F80000FDF74DF8524610
:103418005B46CDE902013A48FEF7ACFF394A13682A
:10342800002B3FF4DAAE384C3848A168384E94E89F
:103438000808D6F800807768D0F800A0B668D0F8F9
:10344800049084680D910E9302F0D2FC0E9A0D9BA5
:103458000092069002932F484146CDF804B0CDF86B
:103468000CA0CDF8109005943A463346FEF782FF3B
:103478002948016800293FF4B3AEB8E62749204639
:1034880002F044F8DAF8046046F2F161CBF65F71B5
:1034980030466768FDF71AFE38B138460021FDF757
:1034A80033FE10B10027676047E640F6D971304611
:1034B800C3F6C971FDF728FE0028F4D0384600216C
:1034C800FDF704FE0028EED0ECE71548D9F8001007
:1034D8008068FFF7ADFDC9F8000048E658170020DE
:1034E80028DF0008D009002070DF0008380A002013
:1034F800BCDF0008140A002020E00008B4090020FE
:1035080080E00008B009002060170020781700202C
:103518006C170020C8E00008D4090020280A002001
:10352800400F0020E0090020FC09002038B51E4D9E
:1035380000242046FDF7D8FB40F6DB71C4F2C90130
:10354800FDF726FC4FF06A51FDF722FC04F0A0F8C5
:103558004FF47E41C4F2FF61FDF71AFC02F038FD1A
:10356800FDF7DCFD013468802046FDF7BDFB40F621
:10357800DB71C4F2C901FDF70BFC4FF06A51FDF78E
:1035880007FC04F085F84FF47E41C4F2FF61FDF7B3
:10359800FFFB02F01DFDFDF7C1FD0134A8800435D5
:1035A800B4F5806FC5D138BD560F002010B500F0B6
:1035B80047FAD02000F0E2FA00F0AAFF752000F0E8
:1035C800DDFA00F0A5FF00F061FA012002F0F0FC3E
:1035D80000F036FAD12000F0D1FA00F099FF00F09F
:1035E80023FC044600F0A2FA00F050FA682C40F0E0
:1035F800CB80052002F0DCFC00F022FAD02000F09D
:10360800BDFA00F085FF6B2000F0B8FA00F080FFEB
:10361800802000F0B3FA00F07BFF00F037FA962024
:1036280002F0C6FC00F00CFAD02000F0A7FA00F077
:103638006FFF6B2000F0A2FA00F06AFF032000F091
:103648009DFA00F065FF00F021FA052002F0B0FCB9
:1036580000F0F6F9D02000F091FA00F059FF6C2044
:1036680000F08CFA00F054FF002000F087FA00F018
:103678004FFF00F00BFA052002F09AFC00F0E0F989
:10368800D02000F07BFA00F043FF192000F076FA12
:1036980000F03EFF002000F071FA00F039FF00F062
:1036A800F5F9052002F084FC00F0CAF9D02000F0FA
:1036B80065FA00F02DFF1A2000F060FA00F028FFEC
:1036C800002000F05BFA00F023FF00F0DFF905208E
:1036D80002F06EFC00F0B4F9D02000F04FFA00F0D0
:1036E80017FF1B2000F04AFA00F012FF002000F03C
:1036F80045FA00F00DFF00F0C9F9052002F058FC6A
:1037080000F09EF9D02000F039FA00F001FF1C20EB
:1037180000F034FA00F0FCFE002000F02FFA00F070
:10372800F7FE00F0B3F9052002F042FC00F088F93A
:10373800D02000F023FA00F0EBFE372000F01EFA4C
:1037480000F0E6FE002000F019FA00F0E1FE00F0BB
:103758009DF9052002F02CFC00F072F9D02000F051
:103768000DFA00F0D5FE382000F008FA00F0D0FE7F
:10377800002000F003FA00F0CBFE00F087F90520E6
:1037880002F016FC002010BD4FF0FF3010BD00BF46
:1037980070B5224C00230E462360054600F050F910
:1037A800D02000F0EBF900F0B3FE206800B170BD46
:1037B800E8B200F0E3F900F0ABFE21680029F6D189
:1037C80000F064F900F03CF9D12000F0D7F900F0DE
:1037D8009FFE2268002AEAD100F026FB307000F034
:1037E8007DF900F021FB707000F078F900F01CFB07
:1037F800B07000F073F900F017FBF07000F06EF98C
:1038080000F012FB307100F069F900F00DFB7071E7
:1038180000F08CF9BDE8704000F038B95C17002062
:1038280010B582B0044669463B20FFF7B1FF114B43
:103838001868E8B99DF800109DF8012042EA0123B4
:1038480018B2FDF751FA9DF802109DF80320206088
:1038580042EA012000B2FDF747FA9DF804109DF8EE
:103868000530606043EA012210B2FDF73DFAA0601E
:1038780002B010BD5C17002010B582B0044669463E
:103888004320FFF785FF244B1868002841D19DF895
:1038980001109DF8002041EA0223204A18B2138043
:1038A800FDF722FA1E490968FDF768F948F6FA514A
:1038B800C4F2EA51FDF720FB9DF803309DF8022081
:1038C800206043EA0221174A08B21180FDF70CFA7A
:1038D800154B1968FDF752F948F6FA51C4F2EA5146
:1038E800FDF70AFB9DF805209DF80410606042EA88
:1038F80001230E4918B20B80FDF7F6F90C4A11683E
:10390800FDF73CF948F6FA51C4F2EA51FDF7F4FA2A
:10391800A06002B010BD00BF5C170020440A002060
:10392800480A00203C0A00204C0A0020460A0020D1
:10393800400A00202DE9F04F394EDFF8F0A0394D4C
:10394800DFF8EC90384CDFF8EC8087B0002703A84C
:10395800FFF792FFBAF90000FDF7C6F93168FDF7E5
:103968000FF93060B9F90000FDF7BEF92968FDF7D5
:1039780007F92860B8F90000FDF7B6F92168FDF7E6
:10398800FFF82060022002F013FB03A8FFF774FF82
:10399800BAF90000FDF7A8F93168FDF7F1F83060D1
:1039A800B9F90000FDF7A0F92968FDF7E9F82860E2
:1039B800B8F90000FDF798F92168FDF7E1F801373B
:1039C800FFB22060022002F0F3FA781CC7B2962FEB
:1039D800DFF84CB0134A144BB9D10021DBF80000D2
:1039E800C4F2163101920093FDF786FACBF8000075
:1039F80001980021C4F216310068FDF77DFA019A9A
:103A0800009B00211060C4F216311868FDF774FAA3
:103A180000990860052002F0CBFA07B0BDE8F08FE6
:103A2800480A00204C0A0020400A0020440A0020CE
:103A38003C0A0020460A0020012002F0B1BA00BF6B
:103A480010B54FF44064C4F20104204601224FF43B
:103A58000061FEF7EBF8204601224FF48061FEF783
:103A6800E5F8FFF7E9FF204600224FF40061FEF772
:103A7800DDF8FFF7E1FF20464FF480610022FEF7F2
:103A8800D5F8BDE81040FFF7D7BF00BF10B54FF419
:103A98004064C4F20104204600224FF48061FEF71E
:103AA800C5F8FFF7C9FF204600224FF40061FEF772
:103AB800BDF8FFF7C1FF204601224FF48061FEF7F1
:103AC800B5F8FFF7B9FF20464FF400610122FEF771
:103AD800ADF8BDE81040FFF7AFBF00BF10B54FF419
:103AE8004064C4F20104204600224FF48061FEF7CE
:103AF8009DF8FFF7A1FF204600224FF40061FEF772
:103B080095F8FFF799FF204601224FF48061FEF7F0
:103B18008DF8FFF791FF20464FF480610022FEF7F1
:103B280085F8BDE81040FFF787BF00BF10B54FF418
:103B38004064C4F20104204600224FF48061FEF77D
:103B480075F8FFF779FF204601224FF40061FEF770
:103B58006DF8FFF771FF204601224FF48061FEF7F0
:103B680065F8FFF769FF20464FF480610022FEF7F1
:103B78005DF8BDE81040FFF75FBF00BF10B5044611
:103B88004FF44060C4F201004FF480610022FEF758
:103B98004DF8FFF751FF4FF440602206C4F20100D0
:103BA8004FF4006100F120810022FEF73FF8600029
:103BB800C4B2FFF741FF4FF440600122C4F2010094
:103BC8004FF48061FEF732F8FFF736FF4FF440609C
:103BD800C4F201004FF480610022FEF727F8FFF7D6
:103BE8002BFF4FF440602306C4F201004FF400613C
:103BF80000F1FE800022FEF719F86100CCB2FFF751
:103C08001BFF4FF440600122C4F201004FF48061B1
:103C1800FEF70CF8FFF710FF4FF44060C4F2010004
:103C28004FF480610022FEF701F8FFF705FF4FF41B
:103C380040602206C4F201004FF4006100F1DC800C
:103C48000022FDF7F3FF6200D4B2FFF7F5FE4FF450
:103C580040600122C4F201004FF48061FDF7E6FFE5
:103C6800FFF7EAFE4FF44060C4F201004FF48061B0
:103C78000022FDF7DBFFFFF7DFFE4FF4406023066D
:103C8800C4F201004FF4006100F1BA800022FDF790
:103C9800CDFF6300DCB2FFF7CFFE4FF44060012296
:103CA800C4F201004FF48061FDF7C0FFFFF7C4FEC6
:103CB8004FF44060C4F201004FF480610022FDF728
:103CC800B5FFFFF7B9FE4FF440602206C4F20100C9
:103CD8004FF4006100F198800022FDF7A7FF600013
:103CE800C4B2FFF7A9FE4FF440600122C4F20100FC
:103CF8004FF48061FDF79AFFFFF79EFE4FF4406096
:103D0800C4F201004FF480610022FDF78FFFFFF736
:103D180093FE4FF440602306C4F201004FF40061A3
:103D280076D40022FDF782FF6100CCB2FFF784FE53
:103D38004FF440600122C4F201004FF48061FDF7A6
:103D480075FFFFF779FE4FF44060C4F201004FF4AD
:103D580080610022FDF76AFFFFF76EFE4FF44060B6
:103D68002206C4F201004FF4006155D40022FDF789
:103D78005DFFFFF761FE4FF440600122C4F20100CD
:103D88004FF48061FDF752FFFFF756FE4FF4406095
:103D9800C4F201004FF480610022FDF747FFFFF7EE
:103DA8004BFE4FF440606306C4F201004FF400611B
:103DB80036D40022FDF73AFFFFF73EFE4FF440608D
:103DC8000122C4F201004FF48061FDF72FFFFFF7D5
:103DD80033FE4FF44060C4F201004FF480610022CA
:103DE800BDE81040FDF722BF0122FDF71FFFDEE608
:103DF8000122FDF71BFF00E70122FDF717FF22E76D
:103E08000122FDF713FF44E70122FDF70FFF66E7E4
:103E18000122FDF70BFF87E70122FDF707FFA8E75F
:103E28000122FDF703FFC7E74FF440602DE9F04793
:103E38000122C4F201004FF40061FDF7F7FE4FF4D0
:103E480040600022C4F201004FF48061FDF7EEFEED
:103E5800FFF7F2FD4FF440600122C4F201004FF475
:103E68008061FDF7E3FE4FF440604FF40061C4F257
:103E78000100FDF7D1FE04464FF440604FF40061A5
:103E8800C4F20100FDF7C8FE07464FF440604FF446
:103E98000061C4F20100FDF7BFFE81464FF44060A7
:103EA8004FF40061C4F20100FDF7B6FE80464FF4FE
:103EB80040604FF40061C4F20100FDF7ADFE064614
:103EC8004FF440604FF40061C4F20100FDF7A4FE16
:103ED80005464FF440604FF40061C4F20100FDF75D
:103EE8009BFE09EB0803D9198A1957193E184FF494
:103EF80040604FF40061C4F20100FDF78DFE3419F3
:103F080004F0FF052B184FF44060DFB20022C4F222
:103F180001004FF48061032F8CBF02241446FDF783
:103F280085FEFFF789FD4FF440600122C4F20100CD
:103F38004FF48061FDF77AFE4FF440604FF4006162
:103F4800C4F20100FDF768FE05464FF440604FF4E7
:103F58000061C4F20100FDF75FFE81464FF4406046
:103F68004FF40061C4F20100FDF756FE82464FF49B
:103F780040604FF40061C4F20100FDF74DFE804639
:103F88004FF440604FF40061C4F20100FDF744FEB5
:103F980007464FF440604FF40061C4F20100FDF79A
:103FA8003BFE06464FF440604FF40061C4F2010046
:103FB800FDF732FE0AEB090101EB0802D3199F193C
:103FC8003E184FF440604FF40061C4F20100FDF761
:103FD80023FE751905F0FF073818C1B2032988BFF9
:103FE80044F001044FF4406088BFE4B2C4F2010019
:103FF80000224FF48061FDF719FEFFF71DFD4FF415
:1040080040600122C4F201004FF48061FDF70EFE0A
:104018004FF440604FF40061C4F20100FDF7FCFD6D
:1040280005464FF440604FF40061C4F20100FDF70B
:10403800F3FD81464FF440604FF40061C4F2010083
:10404800FDF7EAFD82464FF440604FF40061C4F288
:104058000100FDF7E1FD80464FF440604FF4006138
:10406800C4F20100FDF7D8FD07464FF440604FF455
:104078000061C4F20100FDF7CFFD06464FF4406031
:104088004FF40061C4F20100FDF7C6FD0AEB090216
:1040980002EB0803D9198F193E184FF440604FF40A
:1040A8000061C4F20100FDF7B7FD751905F0FF07BF
:1040B8003818C2B26400032A84BF44F00104E4B291
:1040C8004FF4406063000022C4F201004FF48061A5
:1040D800DCB2FDF7ABFDFFF7AFFC4FF44060012207
:1040E800C4F201004FF48061FDF7A0FD4FF4406079
:1040F8004FF40061C4F20100FDF78EFD05464FF450
:1041080040604FF40061C4F20100FDF785FD81466F
:104118004FF440604FF40061C4F20100FDF77CFDEC
:1041280082464FF440604FF40061C4F20100FDF78D
:1041380073FD80464FF440604FF40061C4F2010003
:10414800FDF76AFD07464FF440604FF40061C4F282
:104158000100FDF761FD06464FF440604FF4006131
:10416800C4F20100FDF758FD0AEB090101EB080252
:10417800D3199F193E184FF440604FF40061C4F200
:104188000100FDF749FD751905F0FF073818C1B2A0
:1041980003294FF4406088BF44F00104C4F20100D1
:1041A80000224FF48061FDF741FDFFF745FC4FF415
:1041B80040600122C4F201004FF48061FDF736FD32
:1041C8004FF440604FF40061C4F20100FDF724FD94
:1041D80005464FF440604FF40061C4F20100FDF75A
:1041E8001BFD81464FF440604FF40061C4F20100AA
:1041F800FDF712FD82464FF440604FF40061C4F2AF
:104208000100FDF709FD80464FF440604FF400615E
:10421800C4F20100FDF700FD07464FF440604FF47B
:104228000061C4F20100FDF7F7FC06464FF4406058
:104238004FF40061C4F20100FDF7EEFC0AEB09023D
:1042480002EB0803D9198F193E184FF440604FF458
:104258000061C4F20100FDF7DFFC751905F0FF07E6
:104268003818C2B26400E4B2032A4FF4406088BF31
:1042780044F00104C4F2010000224FF48061FDF70C
:10428800D5FCFFF7D9FB4FF440600122C4F20100CE
:104298004FF48061FDF7CAFC4FF440604FF40061B1
:1042A800C4F20100FDF7B8FC05464FF440604FF436
:1042B8000061C4F20100FDF7AFFC81464FF4406095
:1042C8004FF40061C4F20100FDF7A6FC82464FF4EA
:1042D80040604FF40061C4F20100FDF79DFC804688
:1042E8004FF440604FF40061C4F20100FDF794FC04
:1042F80007464FF440604FF40061C4F20100FDF737
:104308008BFC06464FF440604FF40061C4F2010094
:10431800FDF782FC0AEB090303EB0801CA19971998
:104328003E184FF440604FF40061C4F20100FDF7FD
:1043380073FC751905F0FF073818C3B26400E4B2BE
:10434800032B4FF4406088BF44F00104C4F201001D
:1043580000224FF48061FDF769FCFFF76DFB4FF415
:1043680040600122C4F201004FF48061FDF75EFC59
:104378004FF440604FF40061C4F20100FDF74CFCBB
:1043880005464FF440604FF40061C4F20100FDF7A8
:1043980043FC81464FF440604FF40061C4F20100D1
:1043A800FDF73AFC82464FF440604FF40061C4F2D6
:1043B8000100FDF731FC80464FF440604FF4006186
:1043C800C4F20100FDF728FC07464FF440604FF4A3
:1043D8000061C4F20100FDF71FFC06464FF440607F
:1043E8004FF40061C4F20100FDF716FC0AEB090165
:1043F80001EB0802D3199F193E184FF440604FF49F
:104408000061C4F20100FDF707FC751905F0FF070C
:104418003818C1B26400E4B203294FF4406088BF81
:1044280044F00104C4F2010000224FF48061FDF75A
:10443800FDFBFFF701FB4FF440600122C4F20100CD
:104448004FF48061FDF7F2FB4FF440604FF40061D8
:10445800C4F20100FDF7E0FB05464FF440604FF45D
:104468000061C4F20100FDF7D7FB81464FF44060BC
:104478004FF40061C4F20100FDF7CEFB82464FF411
:1044880040604FF40061C4F20100FDF7C5FB8046AF
:104498004FF440604FF40061C4F20100FDF7BCFB2B
:1044A80007464FF440604FF40061C4F20100FDF785
:1044B800B3FB06464FF440604FF40061C4F20100BC
:1044C800FDF7AAFB0AEB090202EB0803D9198A19BE
:1044D80013184FF440604FF40061C4F201005D19F5
:1044E800FDF79AFB05F0FF054019C1B26400E4B27C
:1044F80003294FF4406088BF44F00104C4F201006E
:104508004FF480610022FDF791FB2046BDE8F0875B
:104518004FF4406008B50022C4F201004FF48061F6
:10452800FDF784FBFFF788FA4FF440600122C4F2DC
:1045380001004FF40061FDF779FBFFF77DFA4FF4B6
:1045480040600122C4F201004FF48061FDF76EFB68
:10455800FFF772FA4FF44060C4F201004FF40061B3
:10456800FDF75AFB01280AD04FF44060C4F201005D
:104578004FF480610022BDE80840FDF757BB044BAB
:10458800186001F0DDFC03480268511C0160EBE78C
:104598005C1700205817002010B5084C23685A1CD7
:1045A800B3F57A7F226008DD01F0BEFC00F096FDCD
:1045B8005720FDF74BFF0020206010BD540A002053
:1045C80008B5012142F67D20FDF704FC0F200121EA
:1045D800C0F20800FDF70CFC01200146BDE80840C8
:1045E800FDF7EABB40F65023C2F200031868704793
:1045F80010B501F0CBFAFFF7E3FF00F04FFA62B60F
:10460800FDF72EFFA648FDF7B5FEA648FDF7B2FE5A
:1046180000F092FD142401F087FC01F0A1FC642055
:1046280001F0C6FC013C01F07FFC01F099FC64201C
:1046380001F0BEFC013CEED101F06EFC02F0ACFDD5
:10464800002800F0BA809848FDF794FE40F6B8308C
:1046580001F0AEFC02F0A0FD012800F01C81934897
:10466800FDF788FE92489349FDF784FE924A4FF47D
:104678008053C4F20203186814684DF68361C4F2CB
:104688001B3110F4003FA1FB040314BF8B488C4876
:10469800990CFDF76FFE8B48FDF76CFEFDF714FED5
:1046A8008948FDF767FEFEF781FF002800F090803B
:1046B80086480921FDF75EFE01F05EFCFEF776FFF5
:1046C800002800F0858081480821FDF753FE01F09D
:1046D80053FCFEF76BFF00287AD07C480721FDF7D2
:1046E80049FE01F049FCFEF761FF002870D07748C9
:1046F8000621FDF73FFE01F03FFCFEF757FF0028BB
:1047080066D072480521FDF735FE01F035FCFEF74D
:104718004DFF00285CD06D480421FDF72BFE01F009
:104728002BFCFEF743FF002852D068480321FDF711
:1047380021FE01F021FCFEF739FF002848D063482C
:104748000221FDF717FE01F017FCFEF72FFF0028E6
:104758003ED05E480121FDF70DFE01F00DFCFEF78D
:1047680025FF002834D059480021594CFDF702FE96
:1047780001F002FC002157482160FDF7FBFD564877
:10478800FDF7F8FDFDF7CCFF2268002A24D1534835
:10479800FDF7F0FD00F062FDFEF7C8FEFDF736FEFE
:1047A800002802DD4E48FDF7E5FD4E48FDF7E2FD25
:1047B8004D48BDE8104001F0E3B94C48FDF7DAFD7B
:1047C80040F6B83001F0F4FB4948FDF7D3FD46E761
:1047D8003F4C01202060D2E74648FDF7CBFD01F0B1
:1047E800A3FB4FF47A7001F0E3FB01F09DFB4FF45B
:1047F8007A7001F0DDFB01F097FB4FF47A7001F05D
:10480800D7FB01F091FB4FF47A7001F0D1FB01F076
:104818008BFB4FF47A7001F0CBFB01F085FB4FF472
:104828007A7001F0C5FB01F07FFB4FF47A7001F05C
:10483800BFFB01F079FB4FF47A7001F0B9FB01F08E
:1048480073FB4FF47A7001F0B3FB01F06DFB4FF48A
:104858007A7001F0ADFB01F067FB4FF47A7001F05C
:10486800A7FB01F061FB4FF47A7001F0A1FB01F0A6
:104878005BFB4FF47A7001F09BFB01F065F9014690
:104888001D48FDF777FDFFF755F81C48FDF772FD49
:10489800FEF7AEFA7BE71A48FDF76CFDDFE600BFCE
:1048A80070E1000894E10008A8E100085CE2000853
:1048B800B0E20008ECDE000844000020E8E200084E
:1048C80020E300085CE300086CE3000880E30008CC
:1048D800580A0020ACE30008F4E3000868E4000884
:1048E80078E40008B4E40008A1450008F8E10008ED
:1048F80028E2000808E4000830E4000854E400084E
:10490800C4E100082DE9F84FFFF772FE01F01CF929
:10491800044601F019F98442FBD001F0E9F8054694
:1049280072B6002740F2F31601F0E2F8401B013797
:10493800B042F9D962B601F0DBF8DFF8A0A0DFF8E1
:10494800A09004467F00002640F2CF754FF0000883
:1049580001F0CEF88346001BA84208F10108F7D9F8
:10496800FCF7BEF904464046FCF7BEF90021C4F244
:10497800C821FCF70DFA0021C4F27A41FCF708FAC5
:104988002146FCF7B9FA80463846FCF7ADF90146EE
:104998004046FCF7B1FAD9F80030CAF800002BB944
:1049A80040F65822C2F20002116861B900F096FB85
:1049B80001F0E2FA40F65420C2F2000006605C46BC
:1049C800FDF762FDC2E74FF41051C4F6741120469A
:1049D800FCF792FAFEF77CFBECE700BF500A0020D8
:1049E800180F0020012830B409D002281AD0174B1C
:1049F80009221A604FF0FF32104630BC7047002A77
:104A0800FADD4FF498448818C4F20004238803F0B0
:104A180040039BB2002BF9D011F8013B8142A380DF
:104A2800F4D1E9E7002AE7DD4FF498448D18C4F281
:104A38000004208800F0400398B20028F9D011F84B
:104A4800013BA942A380F4D1D6E700BF541A002045
:104A58000D4A08B513689BB1EFF30881181888420E
:104A680002D81060184608BD192202200749FFF72E
:104A7800B9FF074B0C221A604FF0FF33184608BDE8
:104A8800044B1360E8E700BF5C0A0020CCE4000890
:104A9800541A0020581A0020704700BF2DE9F04F23
:104AA8004FF4006783B0C4F201074FF4406618253D
:104AB8000224C4F201064FF4E063384601A9ADF8B8
:104AC80004308DF807508DF80640FCF773FF4FF45B
:104AD8006042304601A9ADF804208DF807508DF8E2
:104AE8000640FCF767FF4FF480504FF4E07B01A9C4
:104AF800C4F20100ADF804B08DF807508DF80640F7
:104B0800FCF758FF8023384601A94FF00308ADF899
:104B180004308DF807508DF80640FCF74BFF3046FF
:104B280001A9ADF804808DF807508DF80640FCF710
:104B380041FF0722384601A9ADF804208DF8075037
:104B48008DF80640FCF736FF304601A94FF0100AF1
:104B5800ADF804B08DF807508DF80640FCF72AFF31
:104B68004FF48053304601A9ADF804308DF807A002
:104B78008DF80680FCF71EFF0822384601A9ADF81B
:104B880004208DF807A08DF80680FCF713FF4FF47A
:104B980040631422304601A9C146ADF804308DF8AF
:104BA80007208DF80680FCF705FF03B0BDE8F08FFD
:104BB80038B504460D46FDF7A3F920462946FDF70A
:104BC800FBF920462946FDF741FA20460821FDF762
:104BD800B9FA20460821FDF7BDFA20460821BDE8AC
:104BE8003840FDF7C1BA00BF70B58CB0002403226D
:104BF80001A94FF47A760546ADF80420ADF80860AF
:104C0800ADF80640ADF80A408DF80C40FDF70CF9F8
:104C180040F23000C2F2000003684FF40062ADF8C1
:104C280010204FF480624FF48076284604A9ADF82E
:104C38001220ADF816304FF480424FF40053ADF80F
:104C48001A30ADF81C20ADF81460ADF81840FDF727
:104C580047FA6023ADF8203001220423284608A92A
:104C6800ADF82220ADF82430ADF82640ADF8284044
:104C7800ADF82A40ADF82C60ADF82E40FFF798FF4C
:104C88000CB070BD70B5032388B006460D460024ED
:104C980001A9ADF804304FF47A724FF40073ADF8FF
:104CA8000820ADF80A30ADF80640FDF7BDF86022DF
:104CB8000123304604A9ADF81020ADF81230ADF844
:104CC8001640ADF81850FFF773FF08B070BD00BF6D
:104CD80000B583B000238DF80400012101A88DF8E8
:104CE80005308DF806308DF80710FCF75DFD03B030
:104CF80000BD00BF124A30B413680468C3F5FA71E6
:104D08004900E31A8B42A8BF0B4603601468456844
:104D1800A342B8BF0023036013688468EA1AE41A40
:104D28008A42A8BF0A468C42B8BF21469A42B8BFF9
:104D380000228B42C8BF00214260816030BC7047AE
:104D480028000020F8B5364B05461C680E4620465C
:104D580000211746FCF7CEF9002858D040F6DB7141
:104D6800C4F2C9012046FCF7C7F84FF08941FCF7A7
:104D78000FF801F02DF9FCF7D1F940F2FF33C8F232
:104D880000030340002B44DB002BB8BF03F580630E
:104D980003F2551603F2AB242248B105A2058E0D85
:104DA800940D30F9131030F9163030F9140007EB70
:104DB800870707FB00F207FB01F107FB03F301F587
:104DC8007F51032403F57F5302F57F523F31C8F228
:104DD80001043F333F3284FB010684FB037084FBEC
:104DE8000274C018CF17DB17A4187618D217C7EBB0
:104DF800A631C3EBA037C2EBA43001F5FA7107F571
:104E0800FA7300F5FA7285E80A00AA60F8BD34461C
:104E1800A4E7581E6FEA80516FEA9152531CB3E71A
:104E280024000020580F002000B5034685B00A462C
:104E380001A81946FFF786FF72B640F66020019A6E
:104E48000299039BC2F2000002604160836062B66F
:104E580072B64FF45050C4F20100028A22F00101E8
:104E68000B041A0C01210282818162B605B000BDD3
:104E780000B5034685B00A4601A81946FFF762FF48
:104E880072B640F66C20019A0299039BC2F20000A8
:104E980002604160836062B672B64FF43050C4F26B
:104EA8000100028A22F001010B041A0C012102827E
:104EB800818162B605B000BD00B585B00A460146DD
:104EC80001A8FFF73FFF01A8FFF714FF72B640F6ED
:104ED8007823019A02980399C2F200031A60586075
:104EE800996062B640F22C03C2F2000300221A60F5
:104EF80072B64FF44060C4F20000018A21F0010349
:104F08001A04110C01230182838162B605B000BD29
:104F18004FF44063C4F200031A8AF0B4D2071AD5DA
:104F2800188A20F001010C04220C1A8272B6294A50
:104F3800294994689B8C886801349BB29460274AFD
:104F48008342C8BF8B6091688B42B8BF9360B3F54A
:104F5800487F02D362B6F0BC70472148036833BB70
:104F6800204E214D37682C88A88829897A0093B269
:104F78001F191E185D184FF400624FF44063C4F205
:104F88000002C4F20003BFB2B6B2ADB2978616876C
:104F980095879C86188799874FF44062C4F200026F
:104FA800938923F0010001040B0C9381D2E74FF49D
:104FB80000624FF44063C4F2000240F2E930C4F2E8
:104FC8000003002190861087908799861987998712
:104FD800E2E700BF78170020601700206C17002058
:104FE8002C00002028000020780A00204FF43052BE
:104FF800C4F20102138A10B423F0010001040C0C5E
:10500800148272B613491448938C4C6842689BB258
:1050180001349342C8BF436010484C6041688B42DA
:10502800B8BF4360B3F5487F10D20D4A4FF43053F0
:10503800108891881289C4F20103988619879A8783
:10504800988920F001010A04100C988162B610BCFE
:10505800704700BF78170020601700206C170020E9
:105068006C0A00204FF45052C4F20102138A10B4A3
:1050780023F0010001040C0C148272B61349144881
:10508800938C0C6802689BB201349342C8BF0360DA
:1050980010480C6001688B42B8BF0360B3F5487FC5
:1050A80010D20D4A4FF45053108891881289C4F2D7
:1050B8000103988619879A87988920F001010A04C4
:1050C800100C988162B610BC704700BF781700209A
:1050D800601700206C170020600A002010B54120DE
:1050E800FDF7B4F972B640F66022C2F2000200235E
:1050F80013605360936062B672B640F66C20C2F2D9
:10510800000003604360836062B640F22C024FF4F3
:1051180040644FF430504FF450510123C2F2000262
:10512800C4F20004C4F20100C4F201011360A381B7
:1051380083818B8110BD00BF2DE9F0414FF43056BB
:10514800C4F2010641F2787141F2607241F26C7367
:105158004FF450550024C2F20002C2F20003C2F21A
:10516800000140F2E9373046C4F201054FF44068C7
:105178009460546014609F605F601F608C604C6036
:105188000C60C4F20008FFF72FFD4FF400672846B3
:10519800FFF72AFDC4F2000740462146FFF772FDDB
:1051A80002213846FFF76EFD40F22800C2F20000E7
:1051B8000388322003F5A87103F29F2289B292B2C4
:1051C800BB84B184AA84FFF783FD1920FFF780FD13
:1051D8002C20FFF77DFD72B64FF4004021460246B1
:1051E80003460124C4F22522C4F22623C4F2012076
:1051F800C4F2012104600C604046146021461C6022
:10520800FCF790FF38462146FCF78CFF30462146D4
:10521800FCF788FF28462146FCF784FF62B6BDE804
:10522800F08100BF10B54FF4806484B0C4F200046C
:105238004722002301A92046ADF804204FF6FF724B
:10524800ADF80630ADF80820ADF80A30FCF7ECFDF3
:1052580020460121FCF758FF04B010BD30B585B0D9
:1052680072B64FF400700121C0F23000FCF7E8FC80
:1052780004244FF4006003250DEB04014FF40043B0
:10528800C4F20100ADF804308DF807408DF80650DF
:10529800FCF790FB4FF44060182228230DEB040123
:1052A800C4F20100ADF804208DF807308DF80650DF
:1052B800FCF780FB4FF480500DEB0401C4F20100B1
:1052C800ADF80440FCF776FB29460120FCF7F4FC16
:1052D80021460120FCF7F0FC02200146FCF7ECFC1B
:1052E8001C2400211022012302A88DF80C108DF82F
:1052F8000D208DF80E300294FCF710FB2046FCF7C9
:105308004BFB2046FCF750FB4FF46140CEF2000007
:105318004FF400714FF480624FF4807301600260B3
:105328000360FFF77FFF62B605B030BD4FF48063BE
:10533800C4F20103586910B5010700D410BD332029
:10534800FDF784F84FF440600821C4F20100FCF72F
:1053580063FC01282BD01A4C4FF44060C4F20100C2
:105368000821FCF759FCC8B1164B1B8820886FF43C
:105378007A72191A8BB2981881B240F2E6329142C9
:1053880003D81148A3F57A7303604FF48061C4F21F
:1053980001014A6942F008034B6110BD4FF4806077
:1053A800C4F20000818C074A8BB21380DEE74FF409
:1053B8008061C4F200018A8C014C2280CCE700BFD6
:1053C8009E0A0020980A00208C0A00204FF480636F
:1053D800C4F20103586910B5430700D410BD322048
:1053E800FDF734F84FF480500421C4F20100FCF7B3
:1053F80013FC01282BD01A4C4FF48050C4F2010042
:105408000421FCF709FCC8B1164B1B8820886FF4EF
:105418007A72191A8BB2981881B240F2E632914228
:1054280003D81148A3F57A7303604FF48061C4F27E
:1054380001014A6942F004034B6110BD4FF48060DA
:10544800C4F20000818C074A8BB21380DEE74FF468
:105458008061C4F200018A8C014C2280CCE700BF35
:105468009A0A0020900A0020880A00204FF48063DE
:10547800C4F20103586910B5C10600D410BD342028
:10548800FCF7E4FF4FF440601021C4F20100FCF780
:10549800C3FB01282BD01A4C4FF44060C4F2010022
:1054A8001021FCF7B9FBC8B1164B1B8820886FF494
:1054B8007A72191A8BB2981881B240F2E632914288
:1054C80003D81148A3F57A7303604FF48061C4F2DE
:1054D80001014A6942F010034B6110BD4FF480602E
:1054E800C4F20000818C074A8BB21380DEE74FF4C8
:1054F8008061C4F200018A8C014C2280CCE700BF95
:105508009C0A0020840A0020940A00202DE9F84310
:10551800584B05460C4658485849D3F80080076848
:105528000E68B8F1000F00F08F800021C4F24731F7
:105538006068FBF72DFC81464046FBF7D5FB002150
:10554800C4F2FA31FBF71AFB01464846FBF718FB91
:105558000021C4F24831FBF7CFFC00216060C4F29F
:10556800A0118046FBF7D0FD002865D041F26F21DD
:105578004046C3F60331FBF70BFC6860002F67D089
:105588000021C4F247312068FBF702FC8046384608
:10559800FBF7AAFB0021C4F2FA31FBF7EFFA014648
:1055A8004046FBF7EDFA0021C4F24831FBF7A4FCB2
:1055B80000212060C4F2A0110746FBF7A5FD0028D2
:1055C8004ED041F26F213846C3F60331FBF7E0FBBA
:1055D8002860002E40D00021C4F24731A068FBF7B4
:1055E800D7FB07463046FBF77FFB0021C4F2FA31B0
:1055F800FBF7C4FA01463846FBF7C2FA0021C4F2A9
:105608004831FBF779FC0021A060C4F2A0110646DE
:10561800FBF77AFD30B900213046CCF2A011FBF738
:1056280055FDC8B141F26F213046C3F60331FBF78F
:10563800AFFBA860BDE8F88300214046CCF2A0117A
:10564800FBF744FD002891D100226A60002F97D112
:1056580000232B60002EBED10020A860BDE8F8838F
:1056680000213846CCF2A011FBF730FD0028EFD01E
:10567800A7E700BF8C0A0020880A0020940A0020AF
:105688004FF46D430422CEF20003C0F2FA52DA60FE
:1056980000BFFDE708B5134BB3F1006F00D108BD9B
:1056A8004FF48052C4F20202D1694FF4E04041F055
:1056B800C053D361C4F2000001684FF4D84241F4EA
:1056C80080730360C4F2000246F6B43144F6FC234A
:1056D800A2F8B810A2F8BC30026822F48071016008
:1056E800FFF7CEFF0000000800230360C0F80C128B
:1056F80043608360704700BF4FF40070704700BF7D
:105708004268036840F2FF10D11A01F50072C8F22E
:1057180000001040002800DB704701386FEAC053D2
:105728006FEAD351481C704738B542B340F2FF15B1
:1057380001E0AB4213D14468026840F2FF13A21A99
:1057480002F50072C8F200031340002BF1DA013BA6
:105758006FEAC3526FEAD2530133AB42EBD04368CE
:105768004268C318197340F2FF118A421BD042687D
:10577800531C4360D0F80C0200B1804738BD446820
:10578800026840F2FF13A21A02F50072C8F2000381
:105798001340002B0ADB40F2FF129342DFD18168ED
:1057A8004B1C836038BD00214160E3E7013B6FEA91
:1057B800C3526FEAD253013340F2FF129342CED163
:1057C800EDE700BFF8B504460E461546002B34D069
:1057D80040F2FF1702E0E818B84214DD606821685B
:1057E80040F2FF13421A02F50070C8F200030340AA
:1057F800002BF0DA013B6FEAC3516FEAD152531C18
:10580800E818B842EADC67686268C7F50077BD4205
:10581800314604EB020028DD3A46ED1B0C3003F05C
:1058280009FC04F10C00F1192A4603F003FC656039
:10583800D4F80C1201B18847F8BD4168026840F2FB
:10584800FF13881A00F50071C8F200030B40002B03
:1058580018DBE918B1F5007FD5DBA268D4F80C1283
:105868005519A5600029E6D1E6E70C302A4603F071
:10587800E1FB61684B19B3F5007F0ED060684519EC
:105888006560D5E7013B6FEAC3526FEAD250431C0B
:10589800E918B1F5007FB6DBDFE700226260C7E7F1
:1058A80001684268034691420ED0006819681A18C8
:1058B800107B40F2FF12914203D019684A1C1A600B
:1058C80070470021196070474FF0FF30704700BFE4
:1058D800704700BFFEE700BFFEE700BFFEE700BF5E
:1058E800FEE700BF704700BF704700BF704700BFAA
:1058F80001F06EBC4FF48020FCF756B810B5044692
:1059080000F0F6F82060606010BD00BF10B50446D6
:1059180000F0EEF863686060C01A10BD05C8101A80
:10592800704700BF4FF48053C4F202035A6802F074
:105938000C00082811D04FF49052C0F27A024FF4AC
:105948008053C4F2020358681049C0F30313C85CBB
:105958000F4B22FA00F21A60704758685968C0F372
:1059680083420232C90309D55B689B0306D44FF40E
:105978009050C0F27A0000FB02F2E0E74FF41061A9
:10598800C0F23D0101FB02F2D9E700BF340000205C
:10599800440000204FF48053C4F20203196800B594
:1059A80041F00100186059680022CFF6FF020A4052
:1059B8005A601A68002122F0847020F480321A603C
:1059C800186883B020F480221A6058681A4620F4B8
:1059D800FE0058604FF41F0098600091019119680B
:1059E80041F48030186003E00098B0F5A06F09D04A
:1059F800136803F4003101910098431C0093019946
:105A08000029F1D04FF48052C4F20202136813F453
:105A180000314CD0012001904FF40052C4F2020230
:105A2800019B1168012B41F01000106011684FF4C0
:105A3800805321F0030010601068C4F2020340F0A4
:105A4800020010605A6819465A60586858605A68C7
:105A580042F4806058605A6822F47C1058605A6892
:105A680027D042F4601058601A6842F080701860BD
:105A78000A684FF480539001C4F20203F8D55968BC
:105A8800184621F003025A60596841F002025A6030
:105A9800436803F00C010829FAD1FFF743FF4FF4DC
:105AA8006D40124ACEF20000826003B000BD019141
:105AB800B2E742F4E81058601A6842F08070186043
:105AC8000A684FF480539201C4F20203F8D559686A
